{
  "contractName": "GestionChaines",
  "abi": [
    {
      "inputs": [],
      "name": "message",
      "outputs": [
        {
          "internalType": "string",
          "name": "",
          "type": "string"
        }
      ],
      "stateMutability": "view",
      "type": "function",
      "constant": true
    },
    {
      "inputs": [
        {
          "internalType": "string",
          "name": "_message",
          "type": "string"
        }
      ],
      "name": "setMessage",
      "outputs": [],
      "stateMutability": "nonpayable",
      "type": "function"
    },
    {
      "inputs": [],
      "name": "getMessage",
      "outputs": [
        {
          "internalType": "string",
          "name": "",
          "type": "string"
        }
      ],
      "stateMutability": "view",
      "type": "function",
      "constant": true
    },
    {
      "inputs": [
        {
          "internalType": "string",
          "name": "a",
          "type": "string"
        },
        {
          "internalType": "string",
          "name": "b",
          "type": "string"
        }
      ],
      "name": "concatener",
      "outputs": [
        {
          "internalType": "string",
          "name": "",
          "type": "string"
        }
      ],
      "stateMutability": "pure",
      "type": "function",
      "constant": true
    },
    {
      "inputs": [
        {
          "internalType": "string",
          "name": "s",
          "type": "string"
        }
      ],
      "name": "concatenerAvec",
      "outputs": [
        {
          "internalType": "string",
          "name": "",
          "type": "string"
        }
      ],
      "stateMutability": "view",
      "type": "function",
      "constant": true
    },
    {
      "inputs": [
        {
          "internalType": "string",
          "name": "s",
          "type": "string"
        }
      ],
      "name": "longueur",
      "outputs": [
        {
          "internalType": "uint256",
          "name": "",
          "type": "uint256"
        }
      ],
      "stateMutability": "pure",
      "type": "function",
      "constant": true
    },
    {
      "inputs": [
        {
          "internalType": "string",
          "name": "s1",
          "type": "string"
        },
        {
          "internalType": "string",
          "name": "s2",
          "type": "string"
        }
      ],
      "name": "comparer",
      "outputs": [
        {
          "internalType": "bool",
          "name": "",
          "type": "bool"
        }
      ],
      "stateMutability": "pure",
      "type": "function",
      "constant": true
    }
  ],
  "bytecode": "0x608060405234801561001057600080fd5b506106e6806100206000396000f3fe608060405234801561001057600080fd5b506004361061007d5760003560e01c80634f7596871161005b5780634f759687146100df5780639103ca33146100ff578063ce6d41de14610112578063e21f37ce1461011a57600080fd5b806317646f8914610082578063368b8772146100aa578063413d4384146100bf575b600080fd5b6100956100903660046103a6565b610122565b60405190151581526020015b60405180910390f35b6100bd6100b836600461040a565b61017b565b005b6100d26100cd36600461040a565b61018b565b6040516100a1919061046b565b6100f16100ed36600461040a565b5190565b6040519081526020016100a1565b6100d261010d3660046103a6565b6101b7565b6100d26101e3565b6100d2610275565b600081604051602001610135919061049e565b604051602081830303815290604052805190602001208360405160200161015c919061049e565b6040516020818303038152906040528051906020012014905092915050565b60006101878282610543565b5050565b60606000826040516020016101a1929190610603565b6040516020818303038152906040529050919050565b606082826040516020016101cc92919061068a565b604051602081830303815290604052905092915050565b6060600080546101f2906104ba565b80601f016020809104026020016040519081016040528092919081815260200182805461021e906104ba565b801561026b5780601f106102405761010080835404028352916020019161026b565b820191906000526020600020905b81548152906001019060200180831161024e57829003601f168201915b5050505050905090565b60008054610282906104ba565b80601f01602080910402602001604051908101604052809291908181526020018280546102ae906104ba565b80156102fb5780601f106102d0576101008083540402835291602001916102fb565b820191906000526020600020905b8154815290600101906020018083116102de57829003601f168201915b505050505081565b634e487b7160e01b600052604160045260246000fd5b600082601f83011261032a57600080fd5b813567ffffffffffffffff8082111561034557610345610303565b604051601f8301601f19908116603f0116810190828211818310171561036d5761036d610303565b8160405283815286602085880101111561038657600080fd5b836020870160208301376000602085830101528094505050505092915050565b600080604083850312156103b957600080fd5b823567ffffffffffffffff808211156103d157600080fd5b6103dd86838701610319565b935060208501359150808211156103f357600080fd5b5061040085828601610319565b9150509250929050565b60006020828403121561041c57600080fd5b813567ffffffffffffffff81111561043357600080fd5b61043f84828501610319565b949350505050565b60005b8381101561046257818101518382015260200161044a565b50506000910152565b602081526000825180602084015261048a816040850160208701610447565b601f01601f19169190910160400192915050565b600082516104b0818460208701610447565b9190910192915050565b600181811c908216806104ce57607f821691505b6020821081036104ee57634e487b7160e01b600052602260045260246000fd5b50919050565b601f82111561053e57600081815260208120601f850160051c8101602086101561051b5750805b601f850160051c820191505b8181101561053a57828155600101610527565b5050505b505050565b815167ffffffffffffffff81111561055d5761055d610303565b6105718161056b84546104ba565b846104f4565b602080601f8311600181146105a6576000841561058e5750858301515b600019600386901b1c1916600185901b17855561053a565b600085815260208120601f198616915b828110156105d5578886015182559484019460019091019084016105b6565b50858210156105f35787850151600019600388901b60f8161c191681555b5050505050600190811b01905550565b6000808454610611816104ba565b60018281168015610629576001811461063e5761066d565b60ff198416875282151583028701945061066d565b8860005260208060002060005b858110156106645781548a82015290840190820161064b565b50505082870194505b505050508351610681818360208801610447565b01949350505050565b6000835161069c818460208801610447565b83519083019061068181836020880161044756fea26469706673582212203092c5308c2b8d8b44f55201776080b141b001babad0756b35235daf7392a50664736f6c63430008150033",
  "immutableReferences": {},
  "source": "// SPDX-License-Identifier: MIT\npragma solidity ^0.8.21;\n\n/// @title GestionChaines - Exercice 3\n/// @notice Contrat pour la gestion des chaînes de caractères\ncontract GestionChaines {\n    string public message;\n\n    /// @notice Modifie la valeur de message\n    /// @param _message La nouvelle valeur du message\n    function setMessage(string memory _message) public {\n        message = _message;\n    }\n\n    /// @notice Retourne la valeur de message\n    /// @return La valeur actuelle du message\n    function getMessage() public view returns (string memory) {\n        return message;\n    }\n\n    /// @notice Concatène deux chaînes passées en paramètres\n    /// @param a Première chaîne\n    /// @param b Deuxième chaîne\n    /// @return Le résultat de la concaténation\n    function concatener(string memory a, string memory b) public pure returns (string memory) {\n        return string.concat(a, b);\n    }\n\n    /// @notice Concatène message avec une autre chaîne\n    /// @param s La chaîne à concaténer avec message\n    /// @return Le résultat de la concaténation\n    function concatenerAvec(string memory s) public view returns (string memory) {\n        return string.concat(message, s);\n    }\n\n    /// @notice Retourne la longueur d'une chaîne\n    /// @param s La chaîne dont on veut la longueur\n    /// @return La longueur de la chaîne en bytes\n    function longueur(string memory s) public pure returns (uint) {\n        return bytes(s).length;\n    }\n\n    /// @notice Compare deux chaînes de caractères\n    /// @param s1 Première chaîne\n    /// @param s2 Deuxième chaîne\n    /// @return true si les chaînes sont identiques, false sinon\n    function comparer(string memory s1, string memory s2) public pure returns (bool) {\n        return keccak256(abi.encodePacked(s1)) == keccak256(abi.encodePacked(s2));\n    }\n}\n",
  "sourcePath": "C:\\Users\\Hamza\\Downloads\\Blockchaine\\contracts\\GestionChaines.sol",
  "compiler": {
    "name": "solc",
    "version": "0.8.21+commit.d9974bed.Emscripten.clang"
  },
  "schemaVersion": "3.4.16",
  "updatedAt": "2026-04-29T09:42:28.413Z",
  "networkType": "ethereum",
  "devdoc": {
    "kind": "dev",
    "methods": {
      "comparer(string,string)": {
        "params": {
          "s1": "Première chaîne",
          "s2": "Deuxième chaîne"
        },
        "returns": {
          "_0": "true si les chaînes sont identiques, false sinon"
        }
      },
      "concatener(string,string)": {
        "params": {
          "a": "Première chaîne",
          "b": "Deuxième chaîne"
        },
        "returns": {
          "_0": "Le résultat de la concaténation"
        }
      },
      "concatenerAvec(string)": {
        "params": {
          "s": "La chaîne à concaténer avec message"
        },
        "returns": {
          "_0": "Le résultat de la concaténation"
        }
      },
      "getMessage()": {
        "returns": {
          "_0": "La valeur actuelle du message"
        }
      },
      "longueur(string)": {
        "params": {
          "s": "La chaîne dont on veut la longueur"
        },
        "returns": {
          "_0": "La longueur de la chaîne en bytes"
        }
      },
      "setMessage(string)": {
        "params": {
          "_message": "La nouvelle valeur du message"
        }
      }
    },
    "title": "GestionChaines - Exercice 3",
    "version": 1
  },
  "userdoc": {
    "kind": "user",
    "methods": {
      "comparer(string,string)": {
        "notice": "Compare deux chaînes de caractères"
      },
      "concatener(string,string)": {
        "notice": "Concatène deux chaînes passées en paramètres"
      },
      "concatenerAvec(string)": {
        "notice": "Concatène message avec une autre chaîne"
      },
      "getMessage()": {
        "notice": "Retourne la valeur de message"
      },
      "longueur(string)": {
        "notice": "Retourne la longueur d'une chaîne"
      },
      "setMessage(string)": {
        "notice": "Modifie la valeur de message"
      }
    },
    "notice": "Contrat pour la gestion des chaînes de caractères",
    "version": 1
  }
}