{
  "contractName": "Parite",
  "abi": [
    {
      "inputs": [
        {
          "internalType": "uint256",
          "name": "nombre",
          "type": "uint256"
        }
      ],
      "name": "estPair",
      "outputs": [
        {
          "internalType": "bool",
          "name": "",
          "type": "bool"
        }
      ],
      "stateMutability": "pure",
      "type": "function",
      "constant": true
    }
  ],
  "bytecode": "0x608060405234801561001057600080fd5b5060d18061001f6000396000f3fe6080604052348015600f57600080fd5b506004361060285760003560e01c80631cee907f14602d575b600080fd5b603c60383660046062565b6050565b604051901515815260200160405180910390f35b6000605b600283607a565b1592915050565b600060208284031215607357600080fd5b5035919050565b600082609657634e487b7160e01b600052601260045260246000fd5b50069056fea26469706673582212200aef568998ed4a9f9c8b261bddecc939f65db0e64cabbaef4f1248accd80edb964736f6c63430008150033",
  "immutableReferences": {},
  "source": "// SPDX-License-Identifier: MIT\npragma solidity ^0.8.21;\n\n/// @title Parite - Exercice 5\n/// @notice Contrat pour vérifier la parité d'un nombre\ncontract Parite {\n\n    /// @notice Vérifie si un nombre est pair\n    /// @param nombre Le nombre à vérifier\n    /// @return true si le nombre est pair, false sinon\n    function estPair(uint nombre) public pure returns (bool) {\n        return nombre % 2 == 0;\n    }\n}\n",
  "sourcePath": "C:\\Users\\Hamza\\Downloads\\Blockchaine\\contracts\\Parite.sol",
  "compiler": {
    "name": "solc",
    "version": "0.8.21+commit.d9974bed.Emscripten.clang"
  },
  "schemaVersion": "3.4.16",
  "updatedAt": "2026-04-29T09:42:28.417Z",
  "networkType": "ethereum",
  "devdoc": {
    "kind": "dev",
    "methods": {
      "estPair(uint256)": {
        "params": {
          "nombre": "Le nombre à vérifier"
        },
        "returns": {
          "_0": "true si le nombre est pair, false sinon"
        }
      }
    },
    "title": "Parite - Exercice 5",
    "version": 1
  },
  "userdoc": {
    "kind": "user",
    "methods": {
      "estPair(uint256)": {
        "notice": "Vérifie si un nombre est pair"
      }
    },
    "notice": "Contrat pour vérifier la parité d'un nombre",
    "version": 1
  }
}