{
  "contractName": "Payment",
  "abi": [
    {
      "inputs": [
        {
          "internalType": "address",
          "name": "_recipient",
          "type": "address"
        }
      ],
      "stateMutability": "nonpayable",
      "type": "constructor"
    },
    {
      "inputs": [],
      "name": "recipient",
      "outputs": [
        {
          "internalType": "address",
          "name": "",
          "type": "address"
        }
      ],
      "stateMutability": "view",
      "type": "function",
      "constant": true
    },
    {
      "inputs": [],
      "name": "receivePayment",
      "outputs": [],
      "stateMutability": "payable",
      "type": "function",
      "payable": true
    },
    {
      "inputs": [],
      "name": "withdraw",
      "outputs": [],
      "stateMutability": "nonpayable",
      "type": "function"
    },
    {
      "inputs": [],
      "name": "getBalance",
      "outputs": [
        {
          "internalType": "uint256",
          "name": "",
          "type": "uint256"
        }
      ],
      "stateMutability": "view",
      "type": "function",
      "constant": true
    }
  ],
  "bytecode": "0x608060405234801561001057600080fd5b5060405161029838038061029883398101604081905261002f91610054565b600080546001600160a01b0319166001600160a01b0392909216919091179055610084565b60006020828403121561006657600080fd5b81516001600160a01b038116811461007d57600080fd5b9392505050565b610205806100936000396000f3fe60806040526004361061003f5760003560e01c806312065fe0146100445780633ccfd60b1461006457806366d003ac1461007b578063835c19f3146100b3575b600080fd5b34801561005057600080fd5b506040514781526020015b60405180910390f35b34801561007057600080fd5b506100796100bb565b005b34801561008757600080fd5b5060005461009b906001600160a01b031681565b6040516001600160a01b03909116815260200161005b565b61007961016b565b6000546001600160a01b0316331461012e5760405162461bcd60e51b815260206004820152602b60248201527f5365756c206c652064657374696e61746169726520706575742072657469726560448201526a72206c657320666f6e647360a81b60648201526084015b60405180910390fd5b600080546040516001600160a01b03909116914780156108fc02929091818181858888f19350505050158015610168573d6000803e3d6000fd5b50565b600034116101cd5760405162461bcd60e51b815260206004820152602960248201527f4c65206d6f6e74616e7420656e766f796520646f69742065747265207375706560448201526807269657572206120360bc1b6064820152608401610125565b56fea26469706673582212205273ba0753a80915448c61323f00ca1c64b55f787e4d62e781bbaac59cc4039064736f6c63430008150033",
  "immutableReferences": {},
  "source": "// SPDX-License-Identifier: MIT\npragma solidity ^0.8.21;\n\n/// @title Payment - Exercice 8\n/// @notice Contrat utilisant les variables globales msg.sender et msg.value\ncontract Payment {\n    address public recipient;\n\n    /// @notice Constructeur initialisant l'adresse du destinataire\n    /// @param _recipient L'adresse du destinataire\n    constructor(address _recipient) {\n        recipient = _recipient;\n    }\n\n    /// @notice Fonction payable pour recevoir des Ethers\n    /// @dev Utilise require pour vérifier que msg.value > 0\n    function receivePayment() public payable {\n        require(msg.value > 0, \"Le montant envoye doit etre superieur a 0\");\n    }\n\n    /// @notice Fonction de retrait réservée au destinataire\n    /// @dev Transfère tout le solde du contrat au recipient\n    function withdraw() public {\n        require(msg.sender == recipient, \"Seul le destinataire peut retirer les fonds\");\n        payable(recipient).transfer(address(this).balance);\n    }\n\n    /// @notice Retourne le solde actuel du contrat\n    /// @return Le solde en Wei\n    function getBalance() public view returns (uint) {\n        return address(this).balance;\n    }\n}\n",
  "sourcePath": "C:\\Users\\Hamza\\Downloads\\Blockchaine\\contracts\\Payment.sol",
  "compiler": {
    "name": "solc",
    "version": "0.8.21+commit.d9974bed.Emscripten.clang"
  },
  "schemaVersion": "3.4.16",
  "updatedAt": "2026-04-29T09:42:28.426Z",
  "networkType": "ethereum",
  "devdoc": {
    "kind": "dev",
    "methods": {
      "constructor": {
        "params": {
          "_recipient": "L'adresse du destinataire"
        }
      },
      "getBalance()": {
        "returns": {
          "_0": "Le solde en Wei"
        }
      },
      "receivePayment()": {
        "details": "Utilise require pour vérifier que msg.value > 0"
      },
      "withdraw()": {
        "details": "Transfère tout le solde du contrat au recipient"
      }
    },
    "title": "Payment - Exercice 8",
    "version": 1
  },
  "userdoc": {
    "kind": "user",
    "methods": {
      "constructor": {
        "notice": "Constructeur initialisant l'adresse du destinataire"
      },
      "getBalance()": {
        "notice": "Retourne le solde actuel du contrat"
      },
      "receivePayment()": {
        "notice": "Fonction payable pour recevoir des Ethers"
      },
      "withdraw()": {
        "notice": "Fonction de retrait réservée au destinataire"
      }
    },
    "notice": "Contrat utilisant les variables globales msg.sender et msg.value",
    "version": 1
  }
}