{
  "contractName": "Rectangle",
  "abi": [
    {
      "inputs": [
        {
          "internalType": "uint256",
          "name": "_x",
          "type": "uint256"
        },
        {
          "internalType": "uint256",
          "name": "_y",
          "type": "uint256"
        },
        {
          "internalType": "uint256",
          "name": "_lo",
          "type": "uint256"
        },
        {
          "internalType": "uint256",
          "name": "_la",
          "type": "uint256"
        }
      ],
      "stateMutability": "nonpayable",
      "type": "constructor"
    },
    {
      "inputs": [],
      "name": "afficheXY",
      "outputs": [
        {
          "internalType": "uint256",
          "name": "",
          "type": "uint256"
        },
        {
          "internalType": "uint256",
          "name": "",
          "type": "uint256"
        }
      ],
      "stateMutability": "view",
      "type": "function",
      "constant": true
    },
    {
      "inputs": [
        {
          "internalType": "uint256",
          "name": "dx",
          "type": "uint256"
        },
        {
          "internalType": "uint256",
          "name": "dy",
          "type": "uint256"
        }
      ],
      "name": "deplacerForme",
      "outputs": [],
      "stateMutability": "nonpayable",
      "type": "function"
    },
    {
      "inputs": [],
      "name": "la",
      "outputs": [
        {
          "internalType": "uint256",
          "name": "",
          "type": "uint256"
        }
      ],
      "stateMutability": "view",
      "type": "function",
      "constant": true
    },
    {
      "inputs": [],
      "name": "lo",
      "outputs": [
        {
          "internalType": "uint256",
          "name": "",
          "type": "uint256"
        }
      ],
      "stateMutability": "view",
      "type": "function",
      "constant": true
    },
    {
      "inputs": [],
      "name": "x",
      "outputs": [
        {
          "internalType": "uint256",
          "name": "",
          "type": "uint256"
        }
      ],
      "stateMutability": "view",
      "type": "function",
      "constant": true
    },
    {
      "inputs": [],
      "name": "y",
      "outputs": [
        {
          "internalType": "uint256",
          "name": "",
          "type": "uint256"
        }
      ],
      "stateMutability": "view",
      "type": "function",
      "constant": true
    },
    {
      "inputs": [],
      "name": "surface",
      "outputs": [
        {
          "internalType": "uint256",
          "name": "",
          "type": "uint256"
        }
      ],
      "stateMutability": "view",
      "type": "function",
      "constant": true
    },
    {
      "inputs": [],
      "name": "afficheInfos",
      "outputs": [
        {
          "internalType": "string",
          "name": "",
          "type": "string"
        }
      ],
      "stateMutability": "pure",
      "type": "function",
      "constant": true
    },
    {
      "inputs": [],
      "name": "afficheLoLa",
      "outputs": [
        {
          "internalType": "uint256",
          "name": "",
          "type": "uint256"
        },
        {
          "internalType": "uint256",
          "name": "",
          "type": "uint256"
        }
      ],
      "stateMutability": "view",
      "type": "function",
      "constant": true
    }
  ],
  "bytecode": "0x608060405234801561001057600080fd5b5060405161030738038061030783398101604081905261002f91610046565b60009390935560019190915560025560035561007c565b6000806000806080858703121561005c57600080fd5b505082516020840151604085015160609095015191969095509092509050565b61027c8061008b6000396000f3fe608060405234801561001057600080fd5b50600436106100935760003560e01c806390c33c3f1161006657806390c33c3f146100e15780639361c232146100ea578063a56dfe4a146100ff578063cd514e4014610108578063cfa8d7a41461011357600080fd5b80630c55699c146100985780630e94ba83146100b45780637780c14f146100bc57806383a443a6146100c5575b600080fd5b6100a160005481565b6040519081526020015b60405180910390f35b6100a1610146565b6100a160025481565b6002546003545b604080519283526020830191909152016100ab565b6100a160035481565b6100fd6100f8366004610190565b61015d565b005b6100a160015481565b6000546001546100cc565b60408051808201825260118152704a6520737569732052656374616e676c6560781b602082015290516100ab91906101b2565b60006003546002546101589190610216565b905090565b8160008082825461016e9190610233565b9250508190555080600160008282546101879190610233565b90915550505050565b600080604083850312156101a357600080fd5b50508035926020909101359150565b600060208083528351808285015260005b818110156101df578581018301518582016040015282016101c3565b506000604082860101526040601f19601f8301168501019250505092915050565b634e487b7160e01b600052601160045260246000fd5b808202811582820484141761022d5761022d610200565b92915050565b8082018082111561022d5761022d61020056fea26469706673582212203122bf83c1d1425e60ba88c0929eb13f08f495ba09905b19bbc1f3a8e9d8ef8664736f6c63430008150033",
  "immutableReferences": {},
  "source": "// SPDX-License-Identifier: MIT\npragma solidity ^0.8.21;\n\nimport \"./Forme.sol\";\n\n/// @title Rectangle - Exercice 7 (Contrat Concret)\n/// @notice Contrat concret héritant de Forme, représentant un rectangle\ncontract Rectangle is Forme {\n    uint public lo; // longueur\n    uint public la; // largeur\n\n    /// @notice Constructeur prenant 4 paramètres\n    /// @param _x Coordonnée x\n    /// @param _y Coordonnée y\n    /// @param _lo Longueur du rectangle\n    /// @param _la Largeur du rectangle\n    constructor(uint _x, uint _y, uint _lo, uint _la) Forme(_x, _y) {\n        lo = _lo;\n        la = _la;\n    }\n\n    /// @notice Calcule la surface du rectangle\n    /// @return La surface (longueur × largeur)\n    function surface() public view override returns (uint) {\n        return lo * la;\n    }\n\n    /// @notice Redéfinition de afficheInfos\n    /// @return Le message \"Je suis Rectangle\"\n    function afficheInfos() public pure override returns (string memory) {\n        return \"Je suis Rectangle\";\n    }\n\n    /// @notice Retourne la longueur et la largeur\n    /// @return La longueur et la largeur du rectangle\n    function afficheLoLa() public view returns (uint, uint) {\n        return (lo, la);\n    }\n}\n",
  "sourcePath": "C:\\Users\\Hamza\\Downloads\\Blockchaine\\contracts\\Rectangle.sol",
  "compiler": {
    "name": "solc",
    "version": "0.8.21+commit.d9974bed.Emscripten.clang"
  },
  "schemaVersion": "3.4.16",
  "updatedAt": "2026-04-29T09:42:28.422Z",
  "networkType": "ethereum",
  "devdoc": {
    "kind": "dev",
    "methods": {
      "afficheInfos()": {
        "returns": {
          "_0": "Le message \"Je suis Rectangle\""
        }
      },
      "afficheLoLa()": {
        "returns": {
          "_0": "La longueur et la largeur du rectangle"
        }
      },
      "afficheXY()": {
        "returns": {
          "_0": "Les coordonnées x et y"
        }
      },
      "constructor": {
        "params": {
          "_la": "Largeur du rectangle",
          "_lo": "Longueur du rectangle",
          "_x": "Coordonnée x",
          "_y": "Coordonnée y"
        }
      },
      "deplacerForme(uint256,uint256)": {
        "params": {
          "dx": "Déplacement en x",
          "dy": "Déplacement en y"
        }
      },
      "surface()": {
        "returns": {
          "_0": "La surface (longueur × largeur)"
        }
      }
    },
    "title": "Rectangle - Exercice 7 (Contrat Concret)",
    "version": 1
  },
  "userdoc": {
    "kind": "user",
    "methods": {
      "afficheInfos()": {
        "notice": "Redéfinition de afficheInfos"
      },
      "afficheLoLa()": {
        "notice": "Retourne la longueur et la largeur"
      },
      "afficheXY()": {
        "notice": "Retourne les coordonnées actuelles"
      },
      "constructor": {
        "notice": "Constructeur prenant 4 paramètres"
      },
      "deplacerForme(uint256,uint256)": {
        "notice": "Déplace la forme en modifiant les coordonnées"
      },
      "surface()": {
        "notice": "Calcule la surface du rectangle"
      }
    },
    "notice": "Contrat concret héritant de Forme, représentant un rectangle",
    "version": 1
  }
}