{
  "contractName": "Signe",
  "abi": [
    {
      "inputs": [
        {
          "internalType": "int256",
          "name": "nombre",
          "type": "int256"
        }
      ],
      "name": "estPositif",
      "outputs": [
        {
          "internalType": "bool",
          "name": "",
          "type": "bool"
        }
      ],
      "stateMutability": "pure",
      "type": "function",
      "constant": true
    }
  ],
  "bytecode": "0x6080604052348015600f57600080fd5b5060a18061001e6000396000f3fe6080604052348015600f57600080fd5b506004361060285760003560e01c8063fa046abd14602d575b600080fd5b603f60383660046053565b6000131590565b604051901515815260200160405180910390f35b600060208284031215606457600080fd5b503591905056fea264697066735822122036e0a1302173056fbd3652bd00e5b18ac8e069813e09e9d90ff7c8d7c1c6c5ac64736f6c63430008150033",
  "immutableReferences": {},
  "source": "// SPDX-License-Identifier: MIT\npragma solidity ^0.8.21;\n\n/// @title Signe - Exercice 4\n/// @notice Contrat pour vérifier le signe d'un nombre\ncontract Signe {\n\n    /// @notice Vérifie si un nombre est positif\n    /// @param nombre Le nombre à vérifier\n    /// @return true si le nombre est positif (>= 0), false sinon\n    function estPositif(int nombre) public pure returns (bool) {\n        return nombre >= 0;\n    }\n}\n",
  "sourcePath": "C:\\Users\\Hamza\\Downloads\\Blockchaine\\contracts\\Signe.sol",
  "compiler": {
    "name": "solc",
    "version": "0.8.21+commit.d9974bed.Emscripten.clang"
  },
  "schemaVersion": "3.4.16",
  "updatedAt": "2026-04-29T09:42:28.416Z",
  "networkType": "ethereum",
  "devdoc": {
    "kind": "dev",
    "methods": {
      "estPositif(int256)": {
        "params": {
          "nombre": "Le nombre à vérifier"
        },
        "returns": {
          "_0": "true si le nombre est positif (>= 0), false sinon"
        }
      }
    },
    "title": "Signe - Exercice 4",
    "version": 1
  },
  "userdoc": {
    "kind": "user",
    "methods": {
      "estPositif(int256)": {
        "notice": "Vérifie si un nombre est positif"
      }
    },
    "notice": "Contrat pour vérifier le signe d'un nombre",
    "version": 1
  }
}