{
  "contractName": "Somme",
  "abi": [
    {
      "inputs": [
        {
          "internalType": "uint256",
          "name": "_a",
          "type": "uint256"
        },
        {
          "internalType": "uint256",
          "name": "_b",
          "type": "uint256"
        }
      ],
      "stateMutability": "nonpayable",
      "type": "constructor"
    },
    {
      "inputs": [],
      "name": "a",
      "outputs": [
        {
          "internalType": "uint256",
          "name": "",
          "type": "uint256"
        }
      ],
      "stateMutability": "view",
      "type": "function",
      "constant": true
    },
    {
      "inputs": [],
      "name": "b",
      "outputs": [
        {
          "internalType": "uint256",
          "name": "",
          "type": "uint256"
        }
      ],
      "stateMutability": "view",
      "type": "function",
      "constant": true
    },
    {
      "inputs": [],
      "name": "addition1",
      "outputs": [
        {
          "internalType": "uint256",
          "name": "",
          "type": "uint256"
        }
      ],
      "stateMutability": "view",
      "type": "function",
      "constant": true
    },
    {
      "inputs": [
        {
          "internalType": "uint256",
          "name": "_a",
          "type": "uint256"
        },
        {
          "internalType": "uint256",
          "name": "_b",
          "type": "uint256"
        }
      ],
      "name": "addition2",
      "outputs": [
        {
          "internalType": "uint256",
          "name": "",
          "type": "uint256"
        }
      ],
      "stateMutability": "pure",
      "type": "function",
      "constant": true
    }
  ],
  "bytecode": "0x608060405234801561001057600080fd5b5060405161019138038061019183398101604081905261002f9161003d565b600091909155600155610061565b6000806040838503121561005057600080fd5b505080516020909101519092909150565b610121806100706000396000f3fe6080604052348015600f57600080fd5b506004361060465760003560e01c80630dbe671f14604b5780634d3e46e41460655780634df7e3d014606b578063f1d16438146073575b600080fd5b605360005481565b60405190815260200160405180910390f35b60536082565b605360015481565b6053607e36600460aa565b6097565b60006001546000546092919060cb565b905090565b600060a1828460cb565b90505b92915050565b6000806040838503121560bc57600080fd5b50508035926020909101359150565b8082018082111560a457634e487b7160e01b600052601160045260246000fdfea264697066735822122076f3df5eff1d9fb527745f1b02260e8ea3f0f1202e4a552115f842778ea57f7d64736f6c63430008150033",
  "immutableReferences": {},
  "source": "// SPDX-License-Identifier: MIT\npragma solidity ^0.8.21;\n\n/// @title Somme - Exercice 1\n/// @notice Contrat avec deux variables d'état et deux fonctions d'addition\ncontract Somme {\n    uint public a;\n    uint public b;\n\n    /// @notice Constructeur initialisant les deux variables d'état\n    /// @param _a Première valeur\n    /// @param _b Deuxième valeur\n    constructor(uint _a, uint _b) {\n        a = _a;\n        b = _b;\n    }\n\n    /// @notice Calcule la somme des deux variables d'état (view)\n    /// @return La somme de a et b\n    function addition1() public view returns (uint) {\n        return a + b;\n    }\n\n    /// @notice Calcule la somme de deux nombres passés en paramètres (pure)\n    /// @param _a Premier nombre\n    /// @param _b Deuxième nombre\n    /// @return La somme de _a et _b\n    function addition2(uint _a, uint _b) public pure returns (uint) {\n        return _a + _b;\n    }\n}\n",
  "sourcePath": "C:\\Users\\Hamza\\Downloads\\Blockchaine\\contracts\\Somme.sol",
  "compiler": {
    "name": "solc",
    "version": "0.8.21+commit.d9974bed.Emscripten.clang"
  },
  "schemaVersion": "3.4.16",
  "updatedAt": "2026-04-29T09:42:28.409Z",
  "networkType": "ethereum",
  "devdoc": {
    "kind": "dev",
    "methods": {
      "addition1()": {
        "returns": {
          "_0": "La somme de a et b"
        }
      },
      "addition2(uint256,uint256)": {
        "params": {
          "_a": "Premier nombre",
          "_b": "Deuxième nombre"
        },
        "returns": {
          "_0": "La somme de _a et _b"
        }
      },
      "constructor": {
        "params": {
          "_a": "Première valeur",
          "_b": "Deuxième valeur"
        }
      }
    },
    "title": "Somme - Exercice 1",
    "version": 1
  },
  "userdoc": {
    "kind": "user",
    "methods": {
      "addition1()": {
        "notice": "Calcule la somme des deux variables d'état (view)"
      },
      "addition2(uint256,uint256)": {
        "notice": "Calcule la somme de deux nombres passés en paramètres (pure)"
      },
      "constructor": {
        "notice": "Constructeur initialisant les deux variables d'état"
      }
    },
    "notice": "Contrat avec deux variables d'état et deux fonctions d'addition",
    "version": 1
  }
}