{
  "contractName": "Tableaux",
  "abi": [
    {
      "inputs": [],
      "stateMutability": "nonpayable",
      "type": "constructor"
    },
    {
      "inputs": [
        {
          "internalType": "uint256",
          "name": "",
          "type": "uint256"
        }
      ],
      "name": "nombres",
      "outputs": [
        {
          "internalType": "uint256",
          "name": "",
          "type": "uint256"
        }
      ],
      "stateMutability": "view",
      "type": "function",
      "constant": true
    },
    {
      "inputs": [
        {
          "internalType": "uint256",
          "name": "_nombre",
          "type": "uint256"
        }
      ],
      "name": "ajouterNombre",
      "outputs": [],
      "stateMutability": "nonpayable",
      "type": "function"
    },
    {
      "inputs": [
        {
          "internalType": "uint256",
          "name": "index",
          "type": "uint256"
        }
      ],
      "name": "getElement",
      "outputs": [
        {
          "internalType": "uint256",
          "name": "",
          "type": "uint256"
        }
      ],
      "stateMutability": "view",
      "type": "function",
      "constant": true
    },
    {
      "inputs": [],
      "name": "afficheTableau",
      "outputs": [
        {
          "internalType": "uint256[]",
          "name": "",
          "type": "uint256[]"
        }
      ],
      "stateMutability": "view",
      "type": "function",
      "constant": true
    },
    {
      "inputs": [],
      "name": "calculerSomme",
      "outputs": [
        {
          "internalType": "uint256",
          "name": "",
          "type": "uint256"
        }
      ],
      "stateMutability": "view",
      "type": "function",
      "constant": true
    }
  ],
  "bytecode": "0x608060405234801561001057600080fd5b50610355806100206000396000f3fe608060405234801561001057600080fd5b50600436106100575760003560e01c80631f4440b01461005c5780633a7d22bc1461007a5780637692fb5f1461009b578063bd92c667146100ae578063e66df334146100f0575b600080fd5b6100646100f8565b6040516100719190610264565b60405180910390f35b61008d6100883660046102a8565b610150565b604051908152602001610071565b61008d6100a93660046102a8565b6101f1565b6100ee6100bc3660046102a8565b600080546001810182559080527f290decd9548b62a8d60345a988386fc84ba6bc95484008f6362f93160ef3e5630155565b005b61008d610212565b6060600080548060200260200160405190810160405280929190818152602001828054801561014657602002820191906000526020600020905b815481526020019060010190808311610132575b5050505050905090565b6000805482106101cc5760405162461bcd60e51b815260206004820152603960248201527f496e64657820686f7273206c696d69746573203a206c27696e646578206e276560448201527f7869737465207061732064616e73206c65207461626c65617500000000000000606482015260840160405180910390fd5b600082815481106101df576101df6102c1565b90600052602060002001549050919050565b6000818154811061020157600080fd5b600091825260209091200154905081565b600080805b60005481101561025e5760008181548110610234576102346102c1565b90600052602060002001548261024a91906102ed565b91508061025681610306565b915050610217565b50919050565b6020808252825182820181905260009190848201906040850190845b8181101561029c57835183529284019291840191600101610280565b50909695505050505050565b6000602082840312156102ba57600080fd5b5035919050565b634e487b7160e01b600052603260045260246000fd5b634e487b7160e01b600052601160045260246000fd5b80820180821115610300576103006102d7565b92915050565b600060018201610318576103186102d7565b506001019056fea26469706673582212205b812b2f4d04e9020770a1326bab23042e233e6f13ae1baaf4f074236b113f7864736f6c63430008150033",
  "immutableReferences": {},
  "source": "// SPDX-License-Identifier: MIT\npragma solidity ^0.8.21;\n\n/// @title Tableaux - Exercice 6\n/// @notice Contrat pour stocker une liste de nombres et calculer leur somme\ncontract Tableaux {\n    uint[] public nombres;\n\n    /// @notice Constructeur initialisant le tableau\n    constructor() {\n        // Le tableau est initialisé vide\n    }\n\n    /// @notice Ajoute un nombre au tableau\n    /// @param _nombre Le nombre à ajouter\n    function ajouterNombre(uint _nombre) public {\n        nombres.push(_nombre);\n    }\n\n    /// @notice Retourne l'élément à l'indice donné\n    /// @param index L'indice de l'élément\n    /// @return L'élément à l'indice spécifié\n    function getElement(uint index) public view returns (uint) {\n        require(index < nombres.length, \"Index hors limites : l'index n'existe pas dans le tableau\");\n        return nombres[index];\n    }\n\n    /// @notice Retourne le tableau complet\n    /// @return Le tableau de nombres\n    function afficheTableau() public view returns (uint[] memory) {\n        return nombres;\n    }\n\n    /// @notice Calcule et retourne la somme de tous les nombres du tableau\n    /// @return La somme totale\n    function calculerSomme() public view returns (uint) {\n        uint somme = 0;\n        for (uint i = 0; i < nombres.length; i++) {\n            somme += nombres[i];\n        }\n        return somme;\n    }\n}\n",
  "sourcePath": "C:\\Users\\Hamza\\Downloads\\Blockchaine\\contracts\\Tableaux.sol",
  "compiler": {
    "name": "solc",
    "version": "0.8.21+commit.d9974bed.Emscripten.clang"
  },
  "schemaVersion": "3.4.16",
  "updatedAt": "2026-04-29T09:42:28.420Z",
  "networkType": "ethereum",
  "devdoc": {
    "kind": "dev",
    "methods": {
      "afficheTableau()": {
        "returns": {
          "_0": "Le tableau de nombres"
        }
      },
      "ajouterNombre(uint256)": {
        "params": {
          "_nombre": "Le nombre à ajouter"
        }
      },
      "calculerSomme()": {
        "returns": {
          "_0": "La somme totale"
        }
      },
      "getElement(uint256)": {
        "params": {
          "index": "L'indice de l'élément"
        },
        "returns": {
          "_0": "L'élément à l'indice spécifié"
        }
      }
    },
    "title": "Tableaux - Exercice 6",
    "version": 1
  },
  "userdoc": {
    "kind": "user",
    "methods": {
      "afficheTableau()": {
        "notice": "Retourne le tableau complet"
      },
      "ajouterNombre(uint256)": {
        "notice": "Ajoute un nombre au tableau"
      },
      "calculerSomme()": {
        "notice": "Calcule et retourne la somme de tous les nombres du tableau"
      },
      "constructor": {
        "notice": "Constructeur initialisant le tableau"
      },
      "getElement(uint256)": {
        "notice": "Retourne l'élément à l'indice donné"
      }
    },
    "notice": "Contrat pour stocker une liste de nombres et calculer leur somme",
    "version": 1
  }
}